:020000040000FA
:10000000E01920208D010000910100009301000003
:1000100000000000000000000000000000000000E0
:10002000000000000000000000000000950100003A
:10003000000000000000000097010000990100008E
:100040009B010000A51100009B0100009B01000026
:100050009B0100009B0100009B0100009B01000030
:10006000000000009B0100009B0100000000000058
:10007000000000009B010000592000003D1F00000F
:10008000151B00009B010000D91A0000F91A00009E
:10009000491B00009B010000000000000000000060
:1000A0009B0100009B010000000000000000000018
:1000B0009B010000000000009B0100009B0100006C
:1000C00000F002F800F052F812A030C808382418E6
:1000D0002D18AC4201D100F049F80FCCA246AB4636
:1000E0000CA730CF2D1B083F3F197C427F1E544484
:1000F0002D090426F441641EAC4201D300F036F809
:100100000126334200D0FB1A3343984754465D46DC
:10011000DFE70000BC2F0000DC2F00000000000023
:10012000103A02D378C878C1FAD8520701D330C840
:1001300030C101D504680C60704700000000000069
:100140007047000000000000002300240025002666
:10015000103A01D378C1FBD8520700D330C100D583
:100160000B6070471FB51FBD10B510BD00F05AFDE4
:100170001146FFF7F7FF02F02BF900F072FD03B410
:10018000FFF7F2FF03BC01F08FFF000006480047B5
:10019000FEE7FEE7FEE7FEE7FEE7FEE70348044969
:1001A000044A054B70470000C1000000E005202014
:1001B000E0192020E0152020E0152020704770472E
:1001C000704700000246C80FC00781434B0030B59E
:1001D0004B405B009B0D20D01923DB06C91801237F
:1001E0001B05994220DB0324A40704251346AB40DA
:1001F0000BD3002B04D1EB0613409B00E34204D445
:1002000001246407002312195941FF231B05994259
:100210000BD2C9000143500F09E0CB0204D50143C2
:100220000803024305D0054830BDFF21C905084336
:1002300030BD084607210905884330BD0000C07F56
:10024000F0B5F94D0C091E092C402E402F468BB0FD
:10025000A7437DD0B543FCD0002E7AD0002CFCD033
:100260000D465D40ED0F2543AC1BFF25AD04641921
:100270000894C502440DC9022143500DDC02044319
:100280000120C00701430443D2020191200C110C4C
:1002900000958C46010423468B430A91614609046C
:1002A000E24D8A430991010A7D4449198039097850
:1002B00005464D4301266D18F605751B6943C90CAB
:1002C000640B891C4C436418B5012C1B250C2E04AF
:1002D000B4434C434D43210C691889090591009D95
:1002E000E90701D00121C90704912C46019967084B
:1002F000CD072F434C08059DE10B4D432D0C29469E
:100300006646754302950D4645432E46029D7D1B6C
:10031000B44100950D465D4301942C0C2F040D460D
:100320005543AE462D0C3D43029503947546049CFF
:100330002D04641B049406D2029C039D641C0026B9
:1003400075410395029401AC70CC009F7D1B01E0C8
:100350003EE162E1B44109040095079101940599D9
:10036000A4086143090C0C464443650BE7040C46A2
:1003700066467443A646640B3C4303950294744658
:10038000049DE4042C1B049406D2029C039D641C6F
:10039000002675410395029401AC70CC009F7D1B33
:1003A000B44101940C465C430095650FE7000C4690
:1003B0005443A646640F3C43039502947446049D3F
:1003C000E4002C1B049406D2029C039D641C0026AE
:1003D00075410395029401AC70CC009F7D1BB44124
:1003E000AE09AF06049DC900AD092F43049DA406C4
:1003F000AD060495079D344369180791059DE10BEF
:100400004D432D0C29466646754302950D464543DE
:100410002E46029D7D1BB44100950D465D4301941F
:100420002C0C2F040D465543AE462D0C3D43029532
:1004300003947546049C2D04641B049406D2029C0C
:10044000039D641C002675410395029401AC70CC99
:10045000009F7D1BB44101948C050694079C890A7A
:10046000611800950791019C0599A4086143090C46
:100470000D464543680BEF040D46644665436C0B1F
:100480003C43049FED047D1BAC4602D20025641C56
:100490006841009E019D371B8541084658430195E0
:1004A0000C46460FC5005443600F28436546E400E0
:1004B0002C1B02D20025401C6E41019D3F1AB54104
:1004C0002846BD09800628438446A009BF064E027F
:1004D0000699A40676180743079D002068410A99EB
:1004E000079019430020099B00906046FF191343B1
:1004F0004041E20F64003A43A4460446D71A8C41B7
:10050000A04203D90120009020463A46C70F941814
:1005100040416246D20F2243644664000494009C2A
:10052000BE466400D71AA446044602978C4177461B
:10053000002F01D1A04204D96046401C8446029A93
:100540002046C40FA64694184041049A0546D20F8F
:10055000224364466400D31A8D417146002901D1BB
:10056000A84202D928461A46641C104301220028DA
:1005700000D0164361020020079B891904465C41A4
:100580000223002C02DB491813466441089DCE0A61
:100590002D145D194B056705E10A2C050D19089905
:1005A0003E43C9076940002B08D0934006D3002280
:1005B000761C5141002B01D1760876001C4A002D93
:1005C00043DB154241D0AA433FD030460BB0F0BDCB
:1005D00006180D464D41174C7642AC411AD395187A
:1005E0001C465C41134A6D42A24113D301225205BD
:1005F0004C00D4420AD15C00D4420BD04B4002D50F
:1006000092021143E2E749004908DFE75940C90F68
:10061000C90718E000200849D8E7054801420DD174
:100620000342F7D0F2E700000000FF07AC2C000007
:100630000000F07F0000E0FF0000F87F1148594003
:100640000143C01241400020C0E70123089A9B06E5
:100650009A4205DC032252078918C90FC907B5E77A
:10066000052252078918074A1143D2125140ADE7BB
:1006700070B515461C4602460B4628462146FFF734
:10068000DFFD70BDFFFFFF7F1F22030C02D10F2291
:10069000000402D0030E03D004E00020014670479E
:1006A0000002083A030F01D10001121F830F01D18C
:1006B0008000921E002801DB4000521E12055118D6
:1006C0004205C012411810467047C10FC90700D03B
:1006D0004042012292071143D6E701218907D3E75F
:1006E000F0B58B4C0F09254689B0BD437BD01D0961
:1006F0002646AE43FAD00E465E402740F60F3E43F4
:10070000254071D024012142FBD0FF24AD19A4045F
:100710002D1B039501252D05DB02DB0AC9022B43A6
:10072000C90A29431E010901040F130F05012143C2
:100730001701880B820391432D098C46A90B1E4398
:100740008A039543B30B9A0396433F09BA0B94036C
:10075000A74302962E467E430497B6464E19D719F4
:100760000C460196544305977E43371B7646BF1BC4
:100770003601B646BE0B361900967646BC043719CC
:10078000009C01D3641C00946400002F01D001265A
:100790003443029E049F754366467E43049676006A
:1007A00034196E0034190094029C019E1C19664392
:1007B000751BAE46069465464519059C05956C4328
:1007C000594375460891691A0191049E01465143A7
:1007D000A41B0491611A009C0791E10605D06109F0
:1007E0000122114302E072E06EE06109089D0027DA
:1007F0002C0A2D066918049D7C412A0A2D066918C9
:10080000019D6241AC0DAD026D185441079A910DE6
:10081000920255196141029A644658435443069B1B
:10082000059A5A43121A131B9A0E9B015B187A41C0
:10083000010B0005C3185141220A200644195A41F0
:100840009A4200D2491C01204002814203D3152361
:100850000226F64302E014230326F6432020C51A9D
:10086000A9401746AF40DA400A4320460399D840D2
:100870000914731819055118039A3843D2075140C7
:10088000AC4009D00122944006D30022401C5141C3
:10089000002C01D1400840001E4A934212D301228D
:1008A00003989206904207DB0520400709181A4872
:1008B0000143C012414004E0032040070818C10F63
:1008C000C907002009B0F0BD0020F107FAE70518BC
:1008D0000C464C4111486D42A04115D394181A465C
:1008E0005A410E48644290410ED301204A0040050F
:1008F000824209D35A00824206D35940C90F084A9E
:10090000C90700201143DDE700200649DAE70000AF
:100910000000FF07FE070000FFFFFF7F0000E0FF71
:100920000000F07F0000F87F0121C9050123411874
:1009300042001B06D3185B0E0AD0C1100722D20654
:10094000891840075242D14201D552008918704798
:10095000090208D50146002A03D0C10FC9070020AB
:10096000704710467047420202D00020024970478B
:10097000072109050143F4E70000F87FF0B5FF25E2
:100980002D04C609C209FF2704462E400137CB09B2
:100990003E4348402A402B400746002A6BD0002B9C
:1009A00069D0AA4267D0AB4265D0002800DA32464F
:1009B0000125ED0529432C4309022002090AD21A18
:1009C0004B0C7F24E31A434C000A7C44E35C7D24F7
:1009D0002404121914145B00A218884201D3521C7B
:1009E00000E0400049420C465C4324115C43DB01BB
:1009F0006415E318040A5C43C502200D0C46444309
:100A00006419250A5D432303EC0C0D46654300037E
:100A10000019EB184C42A34201D35B18401CD405CB
:100A20002018002B07D05B00C91804D3401C0029F4
:100A300001D1400840003F2189048A4209D3002A9D
:100A400008DC1106090F04D0032149074018C00F24
:100A5000C007F0BD01224100120689187F2252060C
:100A60009142F6D205214907C84201D59010F0BD48
:100A7000FF20C005F0BD002F00DA32461648AA421A
:100A800007D2AB4205D21902090E17D0F80FC007E2
:100A9000F0BDFF2563002D06AB42F9D84900A942FD
:100AA000F6D8AB4201D1A942F2D0A94201D100212E
:100AB00001E061004908D0050843F0BD1102090EAC
:100AC000FBD0FF200243D005F0BD0A460146104688
:100AD00054E700000A2600000000C07F10B5014660
:100AE0009E240002CA15A307002A02D01843002A38
:100AF00004DBA21A002A0CDDD04010BD1206120E33
:100B000001D140004008A21A03D4D040404200283E
:100B1000F3DDFF2248001206904201D9002010BDEB
:100B2000C817C043584010BD0102C21504D00123AC
:100B3000DB071943002A0ADB9E239A1A02D40846CF
:100B4000D0407047FF2241001206914201D9002097
:100B50007047C017C04370471F22030C02D10F22F9
:100B600000041CD0030E01D10002083A030F01D18A
:100B70000001121F830F01D18000921E002801DBAB
:100B80004000521ED20551180212511819229040ED
:100B900004D3491C002801D1490849000846704780
:100BA000C10FC90700D04042012292071143D3E789
:100BB00001218907D0E7000010B5FF231B06440080
:100BC0009C421DD84C009C421AD80346124A0B4343
:100BD00007D4401A02D3EFF3008010BDEFF300807A
:100BE00010BD081A03D3EFF30080904305E0EFF344
:100BF000008001219043C907084380F3008810BD9D
:100C00000D231B041A4204D01146002000F031F8D5
:100C100010BD00F045F810BD00000090004870477E
:100C2000300020207546FFF7F9FFAE460500694603
:100C30005346C008C000854618B020B5FFF7AEFA8D
:100C400060BCB64600260027C0C5C0C5C0C5C0C52B
:100C5000C0C5C0C5C0C5C0C5403D490849008D4696
:100C6000704710B50446C046C0462046FFF787FAD5
:100C700010BDC80212D54803400F002804D0C80395
:100C8000C043012188407047EFF300800001000954
:100C900003210907084380F300887047002070474C
:100CA00010B5024800F004F810BD00000000C07F3D
:100CB00010B50C461107090F092904D00A290AD0DA
:100CC00008290CD104E011460820FFF7D2FF06E006
:100CD000510606D501E0510601D50120C007214685
:100CE00010BDD10607D501010909CC084907000E3E
:100CF0000006044309E0410F20024907000A0143AE
:100D0000200E00061D22D14101430846E7E70000FE
:100D10000120C005014908607047C04690120A4092
:100D20000120C005014908607047C046A0120A4072
:100D3000811E091F00BFFCD270470000B0B5112210
:100D4000120283580C4C1C400B894D881D438B7933
:100D50002B430A4D1D4063198350CB798C881C436B
:100D6000097821435D239B001940801842689A430B
:100D700051184160B0BDC04680CCFFFF7F330000FA
:100D800010B50122120383180C785C6049788150F9
:100D900010BD0000F0B584B0012422022A4B19686E
:100DA00003929143196049490D686D04FCD5457E55
:100DB00025409E69A64374199C612024045D032587
:100DC0002C40DE69AE433419DC61204C25680526D1
:100DD0002660466A37681F6276685E6207262E4084
:100DE0002660C4697F252D02DE69AE436406640C6B
:100DF0003419DC610768456882680092C668026938
:100E00000192426902929A69114C14403A07120BFE
:100E10002D03ADB2AA183243009D2D072D0D1543A9
:100E2000019A1543029A1543007E2843094A02405D
:100E3000101998611868039A1043186008688005B3
:100E4000FCD504B0F0BDC04608010B400013404083
:100E50008D00F0FF72FF0F00F0B5124B1D46083DEC
:100E60002E680124A6432E600326360330401F68F7
:100E7000B743381818601868FF26B043C9B2401845
:100E8000186028682043286018682107002A06D0C7
:100E9000084318600D480168C905FCD5F0BD8843BA
:100EA0001860F0BD10010B400749886007480268D0
:100EB0009202FCD5012212040B6813430B600168F7
:100EC000C906FCD57047C04604010B4004020B4024
:100ED00070B582B00B794A79002A24D0174A2124B0
:100EE0002401202B00D070348218002B00D18824DC
:100EF000156C3F4E35402D191564556C35402C1935
:100F000054641468774D2C40146054682C4054602D
:100F10000024146254628F24E443156D2540156546
:100F2000556D254055656A4613718B799371096833
:100F30000091114600F004F802B070BD38180000AE
:100F4000F0B5664A8218294BC318087920280DD0BD
:100F500000281DD10C68641E5460D56E244C2540B9
:100F60008835D5661646703688251DE00C68641EE7
:100F70005460D46E1E4D2C401E4EA419D466146FBE
:100F80002C40A4191467012465071B4C16460BE07E
:100F90000C6864085460D66E154C26400525ED019A
:100FA0007619D66616467036376827402F43376065
:100FB000D46A4C4D2C40D462146B2C401463002432
:100FC000D46414658F24E443D56F2540D5671D682C
:100FD00025401D6089790143BD2008401168074BF9
:100FE0000B40C018801C1060F0BDC0468418000083
:100FF00024F93FF001040000FFFFFFCF4000FFCFC6
:10100000B0B5364A80184A6842600A78222A57D812
:10101000930001A4E3589F46B7100000C1100000E0
:10102000B7100000C1100000C1100000C110000086
:10103000C1100000C1100000C1100000C11000006C
:10104000C1100000C1100000C1100000C11000005C
:10105000C1100000C1100000A5100000C110000068
:10106000A5100000C1100000C1100000C110000058
:10107000C1100000C1100000C1100000C11000002C
:10108000C1100000C1100000C1100000C11000001C
:10109000C1100000C1100000A5100000C110000028
:1010A000A510000003231B0704689C4301235B0772
:1010B000E318036004E003231B0704689C430460F7
:1010C0000B69C360CB68064C1C40C36A054D1D40CC
:1010D0002B19C362097A11430160B0BD04180000E6
:1010E000777702008888FDFF10B507239B0419401D
:1010F00092008018024A84589C436118815010BDA8
:101100003018000010B5029CA400001911431943C7
:10111000014A815010BDC04650180000920080184E
:10112000014A81507047C0461018000010B50122D6
:10113000120383180C789C604B7883508978014A9D
:10114000815010BD0C110000B0B51122120283585D
:101150000124A34383508B780C881C438B88234342
:10116000094C1C408358094D1D402B1983508B7925
:10117000CC791C43097A21437E23194080184268A8
:101180009A4351184160B0BD18670000E798FDFF11
:1011900010B50122120383180C789C6049788150A5
:1011A00010BD0000F0B501256C020020C143204AAB
:1011B0001046103806681F480346103B1B68B705E9
:1011C0000AD4F50516D501258C4E366826422E46E2
:1011D00000D00E462C0205E0884E3668F6050E4615
:1011E00000D52E46144D2D687519134E35601568BF
:1011F000254315601A060BD45A0617D5804A126883
:10120000120600D401210D4A12688A18402108E014
:101210007B4A1268520600D50121084A12688A18D2
:101220008021064B1A6002680A430260F0BDC04686
:1012300048100A4048300A409000202094002020A6
:1012400010B525480188491C0180464A1278521E73
:1012500053425341424A1278521E544254411C4355
:10126000414A1278521E5342534123433F4A127857
:10127000521E544254411C433D4A1278521E53425E
:10128000534123433B4A1278521E544254411C435B
:10129000394A1278521E534253412343374A127837
:1012A000521E544254411C43E2070BD00D480188A2
:1012B000491C018009B203290CDB084901220A807C
:1012C000054904E009B2064A914203DB03490022C2
:1012D00002800A8010BDC0464C012020A2002020C0
:1012E000B80B0000A00020200120820343490B68B6
:1012F00013405A425A411A4B1A700202404B1B6863
:1013000013405A425A41174B1A7082040B6813401B
:101310005A425A41144B1A7042040B6813405A4205
:101320005A41124B1A70C2030B6813405A425A4179
:101330000F4B1A7042030B6813405A425A410D4B2F
:101340001A7002030B6813405A425A410A4B1A7032
:101350000004096801404842484108490870704744
:10136000A7002020A6002020A5002020A4002020E7
:101370009B0020209C0020209D0020209E002020FB
:101380000120C00302490860024908607047C04656
:1013900080E200E000E100E01A490878002801D06E
:1013A00000220A707047C04610B512480178491CE7
:1013B0000170C9B203291CD3002202700E480178C3
:1013C0000E4B1C68640701D4012111E01B68002B3F
:1013D00001D402210CE001235C02094B1B6823406D
:1013E00000D103220270002B03D0002901D0054850
:1013F000017010BD990020209A00202080130A401F
:1014000080330A40980020200120800607490860A8
:101410007047C04601208006834908607047C04677
:101420000120C006014908607047C046A0120A406A
:101430000120C0067C4908607047C04610B50121F4
:101440008A04C904094B1C78164B012C02D11A607E
:10145000196101E01A611960FFF766FB01461E3150
:1014600094480022FFF75AFE10BDC0461800202005
:1014700010B501210A050906094B1C78094B012CFE
:1014800002D11A60196101E01A611960FFF74CFB83
:1014900001461E3187480122FFF740FE10BDC046BD
:1014A0001900202090320A4010B51C480078401ED8
:1014B000042832D87844007940008744020710207D
:1014C00026001A48006801F09DF810BD154C2078E0
:1014D000002822D01448006800F0E8FD0CE0114C10
:1014E0002078002819D00E480068FFF7F7FA014667
:1014F0000D48006800F06CFE0020207010BD084808
:101500000168002001F062FA10BD05480068FFF78D
:10151000E5FA0146002001F095FB10BD4C042020A7
:1015200050012020D80020204801202068052020DC
:10153000B0B5364900204862886287228A63344801
:1015400004230360CA6308220260324A82231363C1
:10155000314C54630B604C6083234B655362641CB5
:101560000C6593658123D3642C4C0C664C66CB6070
:101570002B4D556693662B4D8D614D619362D36201
:1015800093639364CC648C64CC658C651461146043
:101590005460D4605461946194604B638C601365B3
:1015A00053650B218906204A1161204911602049A9
:1015B000116405210A041F4B1C6814431C601E4A59
:1015C000136830241C43146003239C07556825438B
:1015D00055601A02194B1C6A14431C621C681443A0
:1015E0001C600246403A47239B04136003600803D3
:1015F00013490A6802430A601248016AC022114373
:101600000162016811430160B0BDC04604804240E0
:10161000D0320A40888042408200040081000C00E1
:101620008100010081000E0090120A4080008003BA
:101630008000802F90130A4008150A4028100A40A5
:1016400090330A4028300A4070B582B0194C1A49CC
:101650002046FFF76BFD19492046FFF739FC0025AE
:101660000095204629462A462B46FFF74BFD20468B
:1016700029462A46FFF738FD204629462A46FFF725
:101680004DFD01260096204629462A462B46FFF7A7
:1016900039FD204629463246FFF726FD20462946D9
:1016A0003246FFF73BFD064886600321016002B029
:1016B00070BDC04600808640183000001C3000001D
:1016C0000091864010B50D4C0D492046FFF758FBA0
:1016D0000C492046FFF732FB0B4841680B4A0A4091
:1016E00013324260816812220A432D218A438260AC
:1016F000016801220A43026010BDC04600804640D6
:1017000024300000263000000491464000FCFFFF1A
:1017100070B51A48002404600F200002184D296893
:10172000814301267002081828600320C1432A1F44
:1017300013680B4013606968B143696031026A68DD
:101740008A436A60000321462246FFF785FB0D4865
:10175000FFF720FB286810210143202081432960E6
:1017600030032968014329602046FFF79DFBFF20D5
:10177000000205490A6882430A6070BD08030B40F5
:1017800004010B403030000000E400E00548042173
:1017900001601F21416000218160016805220A4328
:1017A0000260704710E000E010B50B4C0B4920467A
:1017B000FFF7BCFC0A492046FFF722FC09480168F4
:1017C000012211430160FF2000042C490B68834370
:1017D0000B600548026010BD0000864058300000D4
:1017E0005C300000281086400811864010B50C4C73
:1017F0000C492046FFF79AFC0B492046FFF700FCF6
:101800000A48016802220A4302601C48016840221B
:101810000A43BF218A43026005480121016010BDCF
:10182000004008407030000074300000285008402C
:101830000851084010B50D4C0D492046FFF776FCC5
:101840000C492046FFF7DCFB0B48016802220A43E3
:101850000260FF20000609490A6882430120C3078D
:10186000D2180A600649086010BDC04600208640B4
:10187000883000008C3000002830864010E400E002
:101880000831864010B50C4C0C492046FFF74EFC41
:101890000B492046FFF7B4FB0A48016801221143B7
:1018A00001600948016880230B437F218B4303605B
:1018B0000648026010BDC04600A08640A03000006F
:1018C000A430000028B0864014E400E008B186404F
:1018D00010B5194C19492046FFF75AFC1849204603
:1018E000FFF732FC0320C103164802688A430260F6
:1018F0000169334A0A401532026141692D220A43C7
:1019000012218A434261426801210A4043688B43A5
:101910009A1842608A020C4B1C6814431C60FF2218
:101920001206294B1C6894438A07A2181A600268A1
:101930000A43026010BDC04600801040B83000006D
:10194000BA300000009110402890104010B5184C9B
:1019500018492046FFF71CFC17492046FFF7F4FB07
:101960000320C103154802688A4302600169144AD2
:101970000A40911C016141690B220A4334218A43C8
:101980004261426801210A4043688B439A184260D1
:101990008A020C4B1C6814431C60FF2212040A4B81
:1019A0001C6894431C6002680A43026010BDC04674
:1019B00000201040C4300000C6300000003110404C
:1019C0000000FFFF283010400CE400E080B500F07C
:1019D0002FF8FFF7ADFDFFF79BFEFFF735FEFFF792
:1019E000E3FEFFF703FFFFF725FFFFF74BFFFFF7CE
:1019F000ADFFFFF76DFFFFF765FEFFF7C7FEB820ED
:101A0000064900220A549C21054B5A54054B1A548E
:101A100005484254242005490A5480BD280220204C
:101A200060012020E4022020A003202000022020CA
:101A3000F0B581B01448154A426015484260154817
:101A4000426015484260154D6A60154E7260154F30
:101A50007A60154B5A6015494A6015484260154A2C
:101A6000094C22600A4C22600A4C22600A4C226017
:101A70002A6032603A601A600A6002601020FFF744
:101A800057F901B0F0BDC04600080A40030000B19C
:101A900000280A4000888640000886400048084028
:101AA0000028864000A8864000281040008810408A
:101AB000008846400100002610B5064C207800281A
:101AC00000D010BDFFF72CF9FFF7A4FC0120207017
:101AD00010BDC046B500202080B50548006800064E
:101AE00004D0FFF7E1FC03480121017080BDC0462E
:101AF000201086406D05202004480068000603D0B1
:101B000003480168491C01607047C0462030864088
:101B10004404202080B50948006800060DD0FFF776
:101B200043FC08480078012805D1054800780028C2
:101B300001D100F059FB00F09FFA80BD2050084011
:101B40005D0120206C05202005480168C9B20129EB
:101B500005D104490A68521C0A600121816270475C
:101B600020B086404804202010B5C34C20780228BD
:101B700009D001280AD0002807D1FFF79DFF20785F
:101B8000401C207010BD00F079FC10BD02202070B8
:101B900010BDC04610B5B84C2078401E042814D89B
:101BA000784400794000874408020B020E00FFF7DA
:101BB00083FF2078401C207010BD0220207010BDD3
:101BC000FFF77AFF10BD00F059FC10BDF0B581B0F1
:101BD000A94D2878052800D994E0C04678440079BA
:101BE00040008744020438417889012081E0A848F8
:101BF0000178002905D000210170A2480180A54884
:101C0000018000F021FBA54E3068A54F3840A54962
:101C100001F02FF8002818D1A34D28683840A149B9
:101C200001F027F8002810D19E4C00F043FB3068EB
:101C30003840214601F01DF8002806D128683840B8
:101C4000214601F021F80028EFD18B490878401C8B
:101C5000087001B0F0BDFFF72FFF884C20880028E6
:101C600045D0FFF7EDFAF9E7FFF726FF8848002196
:101C7000017084480180874801808348864901605B
:101C800000F0E2FA854E3068854F3840854900F013
:101C9000F0FF002818D1844D28683840814900F0B1
:101CA000E8FF002810D17F4C00F004FB306838407A
:101CB000214600F0DEFF002806D128683840214682
:101CC00000F0E2FF0028EFD16C4C20880028BCD146
:101CD000FFF7B6FAF9E7FFF7EFFE6B486B490160D3
:101CE000664C2088002802D0FFF7AAFAF9E7287886
:101CF000401C287001B0F0BDFFF7DEFE00F0B0FB25
:101D000000F0BCFB01B0F0BDF0B581B05A4D2878B1
:101D1000052800D9AEE0C0467844007940008744E9
:101D200002093E4A85940120287054480021018010
:101D300001B0F0BD5648002101705248018055485D
:101D4000018051485449016000F07EFA534E3068DA
:101D5000534F3840534900F08CFF002818D1524DA2
:101D6000286838404F4900F084FF002810D14D4CBE
:101D700000F0A0FA30683840214600F07AFF0028D1
:101D800006D128683840214600F07EFF0028EFD1B8
:101D90003A4C2088002842D1FFF752FAF9E7FFF7C2
:101DA0008BFEE64839490160344C2088002847D032
:101DB000FFF746FAF9E7FFF77FFE3548002101708B
:101DC0003048018033480180DC483349016000F02D
:101DD0003BFA324E3068324F3840324900F049FF0A
:101DE000002818D1304D286838402E4900F041FFB6
:101DF000002810D12B4C00F05DFA306838402146A5
:101E000000F037FF002806D128683840214600F04E
:101E10003BFF0028EFD119480088002805D0E94988
:101E20000878401C087001B0F0BDFEE7FFF744FEE3
:101E3000C2481649016011480088002800D0FEE71A
:101E40002878401C287001B0F0BDFFF735FE0B4923
:101E5000002008800A490A78521C0A70D1B203296E
:101E600004D828700749088001B0F0BD00F0F8FAE6
:101E700000F004FB01B0F0BDDC052020A200202012
:101E8000400420204C012020500120200000C343AA
:101E9000D8052020DA0520200000F043540120203E
:101EA000FFFFFF7F0000C8425801202010B5FFF758
:101EB00073FA204C217800291ED102280CD0012869
:101EC00012D11D4801680A310160FFF7B1FABC491F
:101ED0000878401C087009E0174801680A39016059
:101EE000FFF798FA01202070B5480078C0B20528A5
:101EF00002D3B348002101702078012819D1D048BD
:101F00000078012815D1AE480078401E032810D86B
:101F100078440079400087440104070AFFF724FE53
:101F200010BDFFF737FE10BDFFF750FE10BDFFF7E5
:101F3000EBFE10BD6C05202068052020F0B581B0B7
:101F40003F480068C0B20B2800D077E03D480068E9
:101F50003D4C2178002507296FD8C0B27944097912
:101F600049008F4403070C101D2B5054AA2865D13B
:101F7000012562E05538414241414D005DE0334961
:101F80000870032559E0324908700878FA2854D8B7
:101F9000304800220270087800280DD004254CE05B
:101FA0002C490A78531C0B70284BD21850700878B3
:101FB00027490978884241D305253EE0234909781D
:101FC000234B1D784D40E9B21D78002D2DD0002502
:101FD0001E4A5619777879401F786A1CBA4224D273
:101FE000B27851401A78AF1C97421ED2F7784F4012
:101FF0001978EA1C8A4217D2317979402D1D1A7856
:102000009542E5D311E00D2811D1072515E00A28E6
:1020100013D10E4800780E49097802280BD0012808
:102020000BD1FFF7F7F908E03946814201D00025CE
:1020300003E0062501E0FFF7E7F9257001B0F0BDE8
:1020400020901040249110404E0520204D04202067
:102050005C0120204D05202080B505480068C0B2F5
:102060000B2804D103480068C0B200F051F980BDCC
:102070002030104024311040B0B5094C20780028A1
:102080000DD0084D2888401C288080B20C2806D32B
:10209000FEF73EFEFFF7B8F9002020702880B0BDA3
:1020A000B5002020B600202070470000B0B5FEF734
:1020B00077FDE44C2060C5480068FEF70FFD3F49FE
:1020C00008803F4A1278022A04D13F4A782819DC56
:1020D0003C3213E0D21E012A16D83A4A1278531E17
:1020E000012B04D8384A7D280CDC373206E0D21E9A
:1020F000012A09D8344A462804DC6E3212B29042D2
:1021000002DAB4221018088000B2FEF749FD6060C0
:10211000204600F0F4F92D49204600F04FFA074D13
:102120002868E16A00F0B0FEFFF788F92868E16AE4
:1021300000F0B8FDFFF79CF9B0BDC046500120206B
:1021400010B5FEF72DFDC14C2060A0480068FEF7D9
:10215000C5FC1A490880D94A1278022A04D11A4AC1
:10216000782819DC3C3213E0D21E012A16D8DF4A47
:102170001278531E012B04D8134A7D280CDC373209
:1021800006E0D21E012A09D80F4A462804DC6E3226
:1021900012B2904202DAB4221018088000B2FEF7A0
:1021A000FFFC6060204600F0AAF90849204600F0D4
:1021B00005FAE06AFEF792FC10BDC046DA00202066
:1021C000B8002020DC0520204CFF000000007A44ED
:1021D00010B50C46FFF7B4FF214600F017FB10BD09
:1021E00080B5FFF7F3FB80BDF0B581B0FFF712F9C2
:1021F0003224204600F032F8FFF706F9FFF718F90D
:10220000724F3D68204600F029F83E68204600F0F5
:1022100025F8B248012101702846314600F042FD00
:10222000396800F03FFD8A49FEF7A8FB05490860C0
:10223000FFF7F6F8204600F011F801B0F0BDC046F7
:102240005D012020440120209E48002101609C481F
:1022500001609D4801609D4801607047B0B57D21D7
:10226000090241430E480368262206E0E41A051FCE
:102270002D686419A2188A4210D21C460368A34232
:1022800008D10368A34205D10368A34202D10368C1
:10229000A342F3D09C42E9D9E41AEBE7B0BDC046B3
:1022A00018E000E0184802210160184A116001603E
:1022B00011607047B0B584480068FEF706FA0C4C10
:1022C0000C4D22462B46FEF70BFAFDF77BFF7C49AF
:1022D00008607E4800684042FEF7F7F922462B4628
:1022E000FEF7FEF9FDF76EFF76490860B0BDC04607
:1022F0008E3EAA301CE7D13F0120800302490860CE
:10230000024908607047C04680E200E000E100E05A
:10231000B0B5294C217800290BD02178012914D19E
:10232000532848D125480078254953220A540225CC
:1023300007E055283FD121480078214955220A5409
:1023400001251E480570257035E02178022932D11B
:102350001A4A13781A49C854581C1070C0B20B2876
:1023600029D108784A7810188A781018CA78101875
:102370000A7910184A79121888798318CA79D318FB
:102380000D7AEB184D7AEB18DBB2897A00258B4277
:10239000D7D10C4901230B701102081800B2FEF7C7
:1023A000FFFB0721C90600F017FD074900F014FDE7
:1023B00006490860C5E7B0BDB4002020B300202066
:1023C000A8002020D800202000003443D400202082
:1023D00082B0FFF705FFFFF78FFFFEF7D1FFFFF792
:1023E00061FF00F0DFFA00F0E5FA154800901548AB
:1023F000154D002421462A46234600F079F8009521
:102400001248134A2146234600F072F800941148FE
:1024100021462246234600F06BF800940E482146E0
:102420002246234600F064F800F0AAFA0B4D01E0C2
:10243000FFF73CFD28780028FAD02C70F8E7C0465A
:102440000000AC42DC002020000070411001202080
:102450000000404070052020A40520206D052020AC
:1024600001208104044A1160C1041160010511605A
:10247000000610607047C04690320A400E490020A6
:1024800008700E4908700E4908600E490860D64968
:102490000860D74908600E4908800E4908800E4937
:1024A00008700E4908700E4908700E4908800E49E0
:1024B00008600E490870704740042020B8002020B2
:1024C000540120205801202090002020940020203A
:1024D0004C012020DA052020D80520205D01202095
:1024E0006C052020A200202050012020DC052020A7
:1024F00010B5029C42618361C461016310BDF0B5F7
:1025000083B004460068616800F0BEFC0546A06028
:10251000206B00282DD001284BD1A169284600F05E
:102520005BFC0290A062E6682846314600F0ACFCF5
:102530000146606900F050FC01902062304631464F
:1025400000F0B0FB0146284600F09EFC216900F037
:10255000A9FB0146E06900F03FFC07466062019874
:10256000029900F09FFB394600F09CFB0146E06AAF
:102570001BE06169284600F02FFC02902062A169EF
:10258000284600F029FC0190A062E6682846314602
:1025900000F07AFC0146E06900F01EFC074660622C
:1025A0000298019900F07EFB394600F07BFBE06267
:1025B00000E0E668E560266103B0F0BDF0B581B0EB
:1025C0000D460446C76A384600F048FB00282E46F0
:1025D00000D13E460121C9074D40002807D13046B1
:1025E000294600F046FB002801D001B0F0BD30467E
:1025F000294600F049FB002800D13546E56201B0CC
:10260000F0BD0000F0B581B00546CD4800F088F877
:10261000CC480068FEF762FA281AFEF7C1FA0446B1
:10262000C94801680460204600F02EFC0646C748F1
:102630000068214600F0D0FB0446C54800683146DA
:1026400000F0CAFB214600F02DFB0146C14F38685F
:1026500000F028FB04463860BF4E314600F0FEFA19
:10266000002806D1BD4E2046314600F002FB00286E
:1026700001D13E603446BA480068FEF72FFA281AA6
:10268000FEF78EFA0546B74801680560284600F057
:10269000FBFB0646B4480068294600F09DFB054652
:1026A000B2480068314600F097FB294600F0FAFA7C
:1026B0000146AF4F386800F0F5FA05463860A64E7F
:1026C000314600F0CBFA002806D1A44E2846314608
:1026D00000F0CFFA002801D13E6035462846FEF7CB
:1026E000FDF90546012600270028304600DC384663
:1026F000A04908702046FEF7F1F9002800DC3E46AC
:102700009D490E70FEF74CFA9C4C2040FEF796FE59
:102710002846FEF745FA2040FEF7AAFE01B0F0BDBC
:10272000F0B585B004462F4801682F4A1268026050
:102730002E48036804932E4B1B6803930360501AC2
:10274000FEF72EFA2B49FEF719F9FEF7EDF82A4AA3
:102750002A4BFDF7C5FF012292070292284BFDF795
:102760006FFDFDF72FFD06467F20C0050194214631
:1027700000F08AFB0090234D296800F02DFB0746EE
:102780002046314600F028FB394600F08BFA2860DD
:102790006C49086004980399081AFEF701FA154974
:1027A000FEF7ECF8FEF7C0F8134A144BFDF798FF5C
:1027B000029A134BFDF744FDFDF704FD0446124E4B
:1027C0003168009800F008FB05460198214600F0AA
:1027D00003FB294600F066FA30606149086005B0E5
:1027E000F0BDC04658052020900020205C05202028
:1027F0009400202000803644C598CF3C5723CA3F20
:10280000E17A843F6005202064052020F0B581B086
:10281000009106464A48FFF783FFF01731464140D2
:10282000081A052800D2002646480068FEF756F927
:10283000301AFEF7B5F90546434801680560284699
:1028400000F022FB074641480068294600F0C4FA20
:1028500005463F480068394600F0BEFA294600F0B8
:1028600021FA01463B4C206800F01CFA0546206026
:10287000394F394600F0F2F9002806D1374F284683
:10288000394600F0F6F9002801D127603D4634486A
:102890000068FEF723F9301AFEF782F90646314840
:1028A00001680660304600F0EFFA07462E480068DF
:1028B000314600F091FA06462C480068394600F08F
:1028C0008BFA314600F0EEF90146294C206800F001
:1028D000E9F906462060204F394600F0BFF900288C
:1028E00006D11E4F3046394600F0C3F9002801D109
:1028F00027603E463046FEF7F1F801240027009994
:102900004618002E204600DA38461A490870284634
:10291000FEF7E4F80099081A002800DA3C46164948
:102920000C70FEF73DF9154C2040FEF787FD304650
:10293000FEF736F92040FEF79BFD01B0F0BDC04622
:10294000CDCC4C3E50052020C8002020BC002020CB
:1029500000002020C400202000809844008098C4FB
:1029600054052020D0002020C0002020040020207A
:10297000CC0020201900202018002020FFFFFF7F1E
:102980000448002101600448032101700348044900
:1029900001607047480120204C0420205001202075
:1029A0000000F041012080040649086006490860E3
:1029B0007047C046012000040249086002490860CF
:1029C0007047C04680E200E000E100E0F0B587B06B
:1029D00006910446FEF788FC4848046000208E49B2
:1029E0000A568E4909560291019289188C4A12564C
:1029F000039289188B4A1256059289188A4A1256F0
:102A000000928918894A1756C919894A1456091912
:102A1000884A15564819012800DC0120FEF7C0F845
:102A200004902846FEF7BCF805462046FEF7B8F8A5
:102A30000146814EB06800F0CFF90446F16828469F
:102A400000F0CAF9214600F02DF904463846FEF799
:102A5000A7F8716800F0C0F9214600F023F9044698
:102A60000098FEF79DF8316800F0B6F9214600F0B5
:102A700019F904460198FEF793F8704D296800F0A3
:102A8000ABF9214600F00EF904460298FEF788F8EB
:102A9000696800F0A1F9214600F004F904460398A2
:102AA000FEF77EF8A96800F097F9214600F0FAF8E1
:102AB00004460598FEF774F8E96800F08DF92146A0
:102AC00000F0F0F80499FDF759FF0C4D68602846B6
:102AD000FFF715FD5A492846FFF770FDE96A069C85
:102AE000204600F0D1F9FEF7A9FCE86A214600F083
:102AF000D9F8FEF7BDFC07B0F0BDC0467005202038
:102B0000F0B587B043490860002043490A5643495D
:102B10000956039102928918414A12560492891863
:102B2000404A1256069289183F4A12560192891855
:102B30003E4A1756C9193E4A165689193D4A145637
:102B40000819012800DC0120FEF72AF8059020462C
:102B5000FEF726F804463046FEF722F80146364DC9
:102B6000A86800F039F90646E968204600F034F913
:102B7000314600F097F804463846FEF711F86968C8
:102B800000F02AF9214600F08DF804460198FEF77E
:102B900007F8296800F020F9214600F083F8044680
:102BA0000298FDF7FDFF254D296800F015F9214633
:102BB00000F078F804460398FDF7F2FF696800F02A
:102BC0000BF9214600F06EF804460498FDF7E8FF83
:102BD000A96800F001F9214600F064F8044606985F
:102BE000FDF7DEFFE96800F0F7F8214600F05AF83B
:102BF0000599FDF7C3FE074C60602046FFF77FFC98
:102C00000F492046FFF7DAFCE06AFDF767FF07B0DF
:102C1000F0BDC046A4052020A4002020A50020204F
:102C2000A6002020A70020209B0020209C00202020
:102C30009D0020209E002020080020201C00202035
:102C400000007A44B0B50C460546FEF74DFB284619
:102C5000FFF756FF2146FFF7D9FDB0BD10B500F0D4
:102C600067F8EFF30080800001D5012010BD00203F
:102C700010BD10B500F05CF8EFF300804000800F4D
:102C8000012800D0002010BD10B500F07BF8EFF354
:102C900000804000800F012801D0012010BD0020DD
:102CA00010BD000070B50125ED0704004C4020D494
:102CB000441A01D2001B0919C60D4B00F2B2FF2ABB
:102CC00029D01B0E2CD000020C0228432C43D31A0F
:102CD000DC40051910D2280A02D3401C6D0611D021
:102CE000761EF6058019FF2A00DA70BDC00DC005FA
:102CF00070BD694000F0CEF801200543C541521C6B
:102D0000761CE8E764089C40C90161408900E7D16E
:102D10000124A043E4E71B0E440200D0034870BD29
:102D2000002AFCD1C00FC00770BD00BF0000C07FEB
:102D30000123DB0502000A430DD4DA4203D49A4290
:102D400007D488427047D84214D4D94212D488425A
:102D5000704780427047DA4203D59A42F9D58142E2
:102D600070475B004200DA4204D24A00DA4201D2E4
:102D70008142704710B5024AFDF71EFF10BD00BF2B
:102D8000090013040123DB0502000A430DD4DA42D3
:102D900003D49A4207D488427047D84214D4D94207
:102DA00012D48842704780427047DA4203D59A4273
:102DB000F9D5814270475B004200DA4204D24A00F2
:102DC000DA4201D28142704710B5024AFDF7F4FEA3
:102DD00010BD00BF0900160470B5420064414B00ED
:102DE0005C41120E39D01B0E38D0FF2A3CD0FF2B8D
:102DF0003AD0D2187F3A40024902400A490A45189F
:102E0000ED0106004E43000A090A48430104731A03
:102E10004019190C4318990F04D05B080121490788
:102E20005B1A521CD80904D3401CF50301D19D063E
:102E300007D0FF2A08D2D50506D0E4072043401961
:102E400070BD0125A843F4E7002A01DCE00770BD4E
:102E50002402FF202043C00570BD1B0EFF2A03D0B3
:102E6000FF2B01D0E00770BDFF2636064500B542B6
:102E700006D84D00B54203D8D218FF2A00D0E7E7A4
:102E8000004870BD0000C07F70B50125ED0704004B
:102E90004C4022D4441A02D26C40001B0919C60DC2
:102EA0004B00F2B2FF2A4BD01B0E50D000020C0296
:102EB000A8432C43D31ADC40051B05D5AD0019D31C
:102EC0006D08761E521E37D0F605280A01D28019E9
:102ED00070BD70416D0603D070BD6940FFF7E8FE1C
:102EE0009C4009026140490001D0401E70BD012490
:102EF000A04370BD6D081DD001202B0C01D12D0405
:102F000010302B0E01D12D0208302B0F01D12D01D5
:102F1000001DAB0F01D1AD00801CEB0F01D16D0086
:102F2000401C361A121A6D00680AF5054019012A6C
:102F300002DB70BD002070BDC036300AC00770BD16
:102F40001B0E440201D1FF2B00D1024870BD002AA4
:102F5000F0D070BD0000C07F80807F7E7D7C7B7A5A
:102F60007978777676757473727171706F6E6E6D35
:102F70006C6C6B6A6A6968686766666564646363DB
:102F800062616160605F5F5E5E5D5D5C5C5B5B5A61
:102F90005A595958585757565655555554545353CE
:102FA00052525251515050504F4F4F4E4E4D4D4D29
:102FB0004C4C4C4B4B4B4A4A4A4949494848484774
:102FC00047474746464645454544444444434343B2
:102FD00043424242424141418182838485868788BF
:102FE000898B8C8D8E8F919293959697999A9C9DB3
:102FF0009FA0A2A3A5A7A8AAACAEB0B2B3B5B7B91B
:10300000BCBEC0C2C5C7C9CCCED1D4D7D9DCDFE2E3
:10301000E6E9ECF0F3F7FAFE08070300E803000026
:103020002000010008000400200300000710000039
:10303000010000000000000000000000400000004F
:10304000000000000000000002010000010000007C
:10305000000000003400C4410807630002000000C3
:10306000E703000001000000000000000000000075
:103070000807630002000000F301000001000000E7
:10308000000000000000000008030900220000000A
:10309000CF07000001000000000000000000000059
:1030A00008000000020000003F1F000001000000B7
:1030B00000000000000000000800000018000000F0
:1030C0000030000004000000180000000030000084
:1030D000F03000000000202030000000200100003F
:1030E0002031000030002020B0190000480100000D
:1030F0006666F6400000F0400000803E0000003FA1
:103100000000403F0000803F01010000000080BE41
:10311000000000BF000040BF000080BF00000000B2
:04000005000000C136
:00000001FF
